:100000000C946C000C9489000C9489000C94890069
:100010000C9489000C9489000C9489000C94B30111
:100020000C9489000C9483020C9489000C94890030
:100030000C9489000C9489000C9489000C9489001C
:100040000C9489000C94F7010C9489000C9489009D
:100050000C9489000C9489000C9489000C948900FC
:100060000C9489000C9489000C9489000C948900EC
:100070000C9489000C9489000C9489000C948900DC
:100080000C9434020C9489000C9489000C9489001F
:100090000C9489000C9489000C9489000C948900BC
:1000A0000C9489000C9489000C94890000000000D5
:1000B0000062011A010A4E012E01057165706E0081
:1000C00000010202030303030404040404040404FF
:1000D00071666E0071766E0011241FBECFEFDAE0FC
:1000E000DEBFCDBF11E0A0E0B1E0EEEBF3E102C076
:1000F00005900D92AA31B107D9F721E0AAE1B1E04C
:1001000001C01D92AA37B207E1F70E949F000C942C
:10011000DD090C9400000E948D020E94BD020E9425
:10012000D3020E9488010E9423020E941F020895A8
:10013000089578940895F8940C940000089583E04D
:100140000E9443080E948B000E94B4030E94B504E1
:100150000E94F50808950895E1E8F0E0808181604B
:10016000808380EE9AE6909389008093880089E0EE
:1001700091E09093010180930001EAE3F1E01382A2
:10018000128211821082669B0BC0E1E8F0E0808150
:100190008E7F8083109285001092840080E0089505
:1001A00081E00895E1E8F0E080818E7F8083669BA6
:1001B00008C080818E7F8083109285001092840019
:1001C00026C0A4E8B0E08D919C911197EAE3F1E09C
:1001D0009683858311961C921E92858196819695B1
:1001E000879596838583858196819695879590934B
:1001F0008900809388008AE191E0909301018093C7
:100200000001E1E8F0E0808181608083EE9880E089
:100210000895E1E8F0E080818E7F80831092850070
:100220001092840010923901F894EE9A80E48CBB0D
:100230007894089520913F013091400130938900D6
:100240002093880090913801992381F01092380111
:100250002CB1EAE3F1E08081918126FB662760F909
:1002600070E0862B972B9183808310C081E0809370
:1002700038012CB1EAE3F1E08281938126FB442727
:1002800040F950E0842B952B93838283EAE3F1E0DD
:1002900084818F5F848384818931A0F480913801C7
:1002A000882339F080819181880F991F9183808301
:1002B0000895EAE3F1E082819381880F991F938387
:1002C00082830895E1E8F0E080818E7F8083109240
:1002D000850010928400F894EE9A80E48CBB7894A8
:1002E00010923E0110923801E0910201F091030159
:1002F0000995089540913A0150913B0160913C016C
:1003000070913D01FC0140835183628373830895A2
:10031000EAE3F1E0118210821382128214821682C3
:10032000158289E091E09093010180930001109281
:100330003901E1E8F0E0808188608083EFE6F0E059
:10034000808182608083EAE6F0E080818062808341
:10035000F894EE9A80E48CBB78940895909303010E
:100360008093020108951F920F920FB60F921124ED
:100370002F933F934F935F936F937F938F939F93AD
:10038000AF93BF93EF93FF9320913901822F90E0B9
:10039000FC01EE0FFF1FE80FF91FE95FFE4F3081F0
:1003A00023130EC0FC01EE0FFF1F8E0F9F1FFC01D9
:1003B000E95FFE4F0180F281E02D099580933901BC
:1003C00080913901823010F010923901FF91EF9144
:1003D000BF91AF919F918F917F916F915F914F915D
:1003E0003F912F910F900FBE0F901F9018951F9265
:1003F0000F920FB60F9211242F933F934F935F9359
:100400006F937F938F939F93AF93BF93EF93FF93DC
:10041000E0910001F09101010995FF91EF91BF91E9
:10042000AF919F918F917F916F915F914F913F918C
:100430002F910F900FBE0F901F90189508957894EC
:100440000895F89408951092900080EE9EE29093A3
:10045000990080939800E1E7F0E0808182608083DA
:1004600089E08093910008951F920F920FB60F922A
:1004700011242F933F934F935F936F937F938F93A9
:100480009F93AF93BF93EF93FF9380E00E94820806
:1004900081E00E94820820914201309143012115A0
:1004A0003105D9F010924101F901215F3F4F808160
:1004B0009181A281B3810097A105B10539F001971F
:1004C000A109B10980839183A283B3833596E21792
:1004D000F30769F783E080934101E0910401F09113
:1004E00005010995FF91EF91BF91AF919F918F9178
:1004F0007F916F915F914F913F912F910F900FBE20
:100500000F901F9018951F920F920FB60F92112403
:100510000F900FBE0F901F901895479A729A6A9A83
:100520003F9A08959EB184E089278EB9089561119C
:100530000DC0882319F0813029F015C0479A80E05A
:1005400090E00895729A80E090E00895882319F071
:10055000813029F00BC0479880E090E008957298B0
:1005600080E090E008958FEF9FEF08958FEF9FEF69
:100570000895469A08954698089546983E9A089593
:1005800085E491E00E947A01E0914E01F0914F01E3
:100590000680F781E02D20E048E050E06FEF8EE428
:1005A00091E009950895E9E4F1E01182ABE4B1E04E
:1005B0008C918E7F8C931082E5E4F1E0138212829D
:1005C0001182108280EC92E00E94AE010E948801AC
:1005D000EDE4F1E08081816080830895CF93DF9323
:1005E00080910601882339F01092060180914B0119
:1005F0008170809344010E942102E5E4F1E02281B0
:10060000338120953095C9019F70408151818417B5
:100610009507D9F5A90144275870952F9695969579
:100620009695EBE4F1E0408190FB40F94083207C1B
:1006300037700024220F331F001C220F331F001CB1
:10064000232F302DE9E4F1E020838F7381833091F3
:100650004C0132131DC0803148F0823120F020EE71
:10066000280F223018F4C82FD0E00BC0309144017D
:10067000292F2170231719F0C82FD0E002C0CCEF2A
:10068000DFEF91709093440105C0CEEFDFEF02C021
:10069000CDEFDFEF0E941F02CE01DF91CF910895D1
:1006A00027E533E0FC013583248388E00895FC01CD
:1006B0002681283009F04FC00E94EE02803191055A
:1006C00051F11CF40C9739F04DC08131910599F12D
:1006D000809789F047C0E0916201F0916301048046
:1006E000F581E02D20E049E050E06FEF82E691E0F7
:1006F000099583E00895E0916201F091630104801F
:10070000F581E02D20E048E050E06FEF82E691E0D7
:10071000099583E00895E0916201F09163010480FE
:10072000F581E02D20E04AE050E06FEF82E691E0B5
:10073000099583E00895E0916201F09163010480DE
:10074000F581E02D21E04AE050E06FEF82E691E094
:10075000099583E0089522EC34E0FC01358324837D
:1007600080E0089583E0089560E573E08EE491E011
:100770000E943708089522EC33E0FC01358324837E
:1007800088E00895FC012681293031F423ED33E01F
:100790003583248388E0089522EC34E0FC0135831E
:1007A000248380E00895FC019681953081F128F43E
:1007B000913041F09230C9F030C09830E1F09A3079
:1007C00001F12BC02489358980E49FE1289FA00195
:1007D000299F500D389F500D112420E030E061E03A
:1007E000CF010E94C70883E0089561E0CF010E9415
:1007F000DE0883E0089589E894E09583848388E0A7
:10080000089583E394E09583848388E0089589E8DC
:1008100094E09583848388E0089583E194E0958350
:10082000848380E00895FC019681923051F09930E4
:1008300071F0913091F461E080E00E94970283E0D2
:10084000089560E080E00E94970283E0089582ECC2
:1008500093E09583848388E0089582EC94E0958307
:10086000848380E00895CF93DF93EC018E81823002
:1008700061F118F4813031F03EC0843061F18A308A
:10088000A1F139C00E94920220E030E048EE53E02E
:1008900060E0CE010E94C7088F8181110AC08C8957
:1008A0009D898830910568F501969D8B8C8B83E03E
:1008B0002DC0813041F58C899D898230910528F1C8
:1008C00001979D8B8C8B83E021C060E0CE010E945C
:1008D000DE0883E01BC060E081E00E94970289E8A7
:1008E00094E09D838C8388E011C083E394E09D8332
:1008F0008C8388E00BC083E194E09D838C8380E04F
:1009000005C083E003C083E001C083E0DF91CF91A5
:100910000895CF93DF93EC018E81823081F0843093
:10092000B1F08130D1F40E94B90220E030E044EF10
:1009300051E060E0CE010E94C70883E013C00E942E
:10094000BB0260E0CE010E94DE0883E00BC083EDB5
:1009500093E09D838C8388E005C083E194E09D83D0
:100960008C8380E0DF91CF9108956BEB73E082E69A
:1009700091E00E94370888E090E09093770180939F
:100980007601089584E00895BF92CF92DF92EF92AE
:10099000FF920F931F93CF93DF93CDB7DEB72A97C4
:1009A0000FB6F894DEBF0FBECDBF7C01DC011296FE
:1009B000CD90DC9013978D919C911197892B59F0D4
:1009C00014968D919C911597892B29F0B2ECCB163A
:1009D000B4E0DB0631F068EC70E08BEB90E00E9455
:1009E0009B00D7011496ED91FC911597C7010995CD
:1009F000883031F062ED70E08BEB90E00E949B005C
:100A0000BB24B39403E0D7011496ED91FC911597A4
:100A1000FA83E98316961C92C7010995F701848130
:100A20009581C816D90661F410E025C01F5F153006
:100A300044F06CED70E08BEB90E00E949B0001C0F5
:100A400011E0D7011496ED91FC911597A12FAA0FF3
:100A5000BB0B81E090E08C0F9D1FA80FB91FED9399
:100A6000FC93C7010995D70114968D919C91159718
:100A7000C816D906D9F6C980DA80F701D582C482B2
:100A8000B682E12FEE0FFF0B81E090E08C0F9D1FEF
:100A9000E80FF91F0190F081E02DC7010995115071
:100AA00082F7D70116960C93C701F6010995883095
:100AB00009F4A9CFD7011396DC92CE92129715961E
:100AC000DC92CE9214972A960FB6F894DEBF0FBE32
:100AD000CDBFDF91CF911F910F91FF90EF90DF90ED
:100AE000CF90BF9008958F929F92AF92BF92CF9276
:100AF000DF92EF92FF920F931F93CF93DF93CDB7C7
:100B0000DEB72A970FB6F894DEBF0FBECDBF7C01CB
:100B1000DC011296CD90DC901397C114D10439F00A
:100B200014968D919C911597C816D90631F060E9FD
:100B300071E08BEB90E00E949B00F701A480B580F0
:100B4000C701F5010995823061F4D70116961C9111
:100B5000169716961C92C701F5010995D7011696AE
:100B60001C93882351F3883008F45BC1F70184801B
:100B700095809A828982DC82CB82BE82AD82CA1441
:100B8000DB04B9F012E0D70116961C93C701F601F9
:100B90000995833031F4D70116961C92C701F601EE
:100BA0000995D7011496CD90DC901597AC14BD042F
:100BB00051F7A814B90439F482E0F7018683C7011C
:100BC000F401099538C1D70116961C92C701F401AA
:100BD0000995D7011496CD90DC901597AC14BD04FF
:100BE00009F429C116961C92C701F5010995D70190
:100BF00014960D911C911597C016D10639F482E018
:100C000016968C93C701F501099515C180169106BA
:100C100041F482E0D70116968C93C701F50109953E
:100C2000A0C0DC82CB82D70116961C92C701F601C8
:100C30000995811130C0DD24D394CC24C394CD0C0C
:100C4000D7011496ED91FC911597AC2DAA0FBB0B13
:100C500021E030E02C0F3D1FA20FB31FED93FC935A
:100C6000AE16BF0659F434E03C150CF063C06EEFCD
:100C700071E08BEB90E00E949B005CC0C70109957E
:100C8000DC2C8823D1F2E7C068E072E08BEB90E0C7
:100C90000E949B0002C0CC24C39482E0D701169628
:100CA0008C93C701F5010995DC2C24E0EC2DEE0FA7
:100CB000FF0B81E090E08C0F9D1FE80FF91F8081F2
:100CC00091810817190729F4DD24DA94DC0C23E05C
:100CD00003C0CA94CC2054F7233061F16894CC242B
:100CE000C1F8D7011696CC92C701F8010995833057
:100CF00031F4D70116961C92C701F8010995D70166
:100D000014960D911C9115978D2DE82FEE0FFF0B6A
:100D100021E030E02C0F3D1FE20FF31F20813181D5
:100D20000217130721F4DD24DA94D80E03C0815092
:100D300062F7D7CF81E0D70116968C93DD208CF037
:100D4000ED2DEE0FFF0B21E030E02C0F3D1FE20FE9
:100D5000F31F0190F081E02DC7010995DA94DD20A1
:100D60007CF7C980DA80D7011596DC92CE92149771
:100D700083E016968C93BB24B39403E04CC0F70138
:100D8000848095809A8289821682C701F401099530
:100D9000D7011496ED91FC911597CE16DF0609F454
:100DA00052C010E01F5FA12FAA0FBB0B21E030E063
:100DB0002C0F3D1FA20FB31FED93FC93C7010995A4
:100DC000D7011496ED91FC911597CE16DF0651F7D9
:100DD000C980DA801596DC92CE921497153034F0E3
:100DE0006AE971E08BEB90E00E949B00F701B6820C
:100DF000E12FEE0FFF0B21E030E02C0F3D1FE20F43
:100E0000F31F0190F081E02DC7010995115082F781
:100E1000D70116960C93C701F6010995883009F49D
:100E2000AECFD7011396DC92CE9212971596DC9234
:100E3000CE92149715C081E0F7018683E981FA818B
:100E4000C70109958ECFD70115969C928E92149763
:100E5000640110E0CBCFB4E0BC150CF01ECF14CF72
:100E60002A960FB6F894DEBF0FBECDBFDF91CF91AB
:100E70001F910F91FF90EF90DF90CF90BF90AF90B8
:100E80009F908F900895FC018DE091E09183808385
:100E900082EC94E0938382837583648308950F9337
:100EA0001F93CF93DF93EC01A889B0E0FD01EE0F13
:100EB000FF1FEE0FFF1FEA0FFB1FE055FF4F84914E
:100EC000F8946F3F59F49B899817B8F066E371E086
:100ED00080ED90E00E949B0030E04CC09B89E82FA1
:100EE000F0E0E91BF10970E031E06E177F070CF0CC
:100EF00030E06E177F0714F03DC031E09989FD01A5
:100F0000EE0FFF1FEE0FFF1FAE0FBF1FA255BF4F0B
:100F1000FD0105911491692F70E0660F771FFB01A9
:100F2000E00FF11F40839989FD0165917491492F6C
:100F300050E0440F551FFA01E60FF71F21839989EE
:100F4000911101C0898B89898150898B8B898F5F31
:100F50008B8B8B89813071F44091790128892150E4
:100F600081E090E002C0880F991F2A95E2F7842B58
:100F700080937901789481E0311101C080E0DF91A4
:100F8000CF911F910F9108950F931F93CF93DF93EC
:100F9000EC01A889B0E0FD01EE0FFF1FEE0FFF1F6F
:100FA000EA0FFB1FE055FF4F84916F3F59F49B8977
:100FB0009817B8F066E371E080ED90E00E949B0026
:100FC00030E04CC09B89E82FF0E0E91BF10970E0AC
:100FD00031E06E177F070CF030E06E177F0714F0DA
:100FE0003DC031E09989FD01EE0FFF1FEE0FFF1F9D
:100FF000AE0FBF1FA255BF4FFD0105911491692F80
:1010000070E0660F771FFB01E00FF11F40839989A5
:10101000FD0165917491492F50E0440F551FFA016D
:10102000E60FF71F21839989911101C0898B898966
:101030008150898B8B898F5F8B8B8B89813071F489
:10104000409179012889215081E090E002C0880F09
:10105000991F2A95E2F7842B8093790181E0311161
:1010600001C080E0DF91CF911F910F910895CF9340
:10107000DF93EC010E94430781E191E0998388832B
:10108000DF91CF9108951F93CF93DF93C82F8EEFF9
:101090008C0F883030F064E670E080ED90E00E94C4
:1010A0009B00C150C093780110927901CC2331F19B
:1010B00011E0812F90E0FC01EE0FFF1FEE0FFF1FEC
:1010C000E80FF91FE455FF4FC591D491209731F4F3
:1010D0006EE670E080ED90E00E949B00198A1A8A0B
:1010E0001B8A198618861B861A861D861C861F86F3
:1010F0001E861F5F809178018117D8F6DF91CF910E
:101100001F910895FF920F931F93CF93DF93F09059
:101110007801082F10E0E801CC0FDD1FCC0FDD1F98
:101120000C5F1F4FEF2DF0E0CF01880F991F880F44
:10113000991FE80FF91FE455FF4F85919491FC0129
:10114000EC0FFD1F2085318521153105B9F02150A7
:10115000310931872087232B89F422853385211596
:10116000310511F031872087DC01ED91FC9106807B
:10117000F781E02D20E0A8016FEF0995FA94F110B6
:10118000D1CFDF91CF911F910F91FF900895F894E7
:1011900070E0DB011296AA0FBB1FAA0FBB1FA80F9E
:1011A000B91F4D935C93660F771F660F771FFC0185
:1011B000E60FF71F3387228778940895F89470E03C
:1011C000DB011296AA0FBB1FAA0FBB1FA80FB91FE6
:1011D0001D921C92660F771F660F771FFC01E60FAA
:1011E000F71F1386128678940895809178018150B4
:1011F000883030F064E670E084ED90E00E949B005F
:1012000080917801882309F43BC0C1E08C2F90E0E5
:10121000FC01EE0FFF1FEE0FFF1FE80FF91FE45553
:10122000FF4F059114910115110531F46AE273E045
:1012300084ED90E00E949B00D8015096CC93CF5F44
:10124000809178018C1710F78823D1F0C1E08C2FA2
:1012500090E0FC01EE0FFF1FEE0FFF1FE80FF91FDC
:10126000E455FF4F85919491DC01ED91FC91019043
:10127000F081E02D0995CF5F809178018C1738F7C8
:101280000E949800F894EE24E394F12C8091790167
:10129000882309F48EC080917901807F51F0E0911C
:1012A0007901E295EF70F0E0E054FF4FE491EC5FDC
:1012B00006C0E0917901F0E0E054FF4FE491CE2FB9
:1012C000D0E0FE01EE0FFF1FEE0FFF1FEC0FFD1F22
:1012D000E455FF4F05911491F8018389811106C0EF
:1012E00064E373E084ED90E00E949B00D801539684
:1012F0008C915397815053968C93539752963C916F
:101300005297FE01EE0FFF1FEE0FFF1FEC0FFD1FA8
:10131000CF0182559F4FFC0145915491232F30E01E
:10132000220F331FF901E40FF51F2081F8012683F6
:101330002289FC0145915491822F90E0880F991FDA
:10134000FC01E40FF51F818117968C931797529635
:101350008C91529781110CC0FE01EE0FFF1FEE0F12
:10136000FF1FEC0FFD1FE055FF4FE4915296EC93E9
:10137000F80182898150828B78940190F081E02D70
:101380000280F381E02DC8010995F894F801838962
:1013900081117CCF909179012197970102C0220F92
:1013A000331FCA95E2F7822F8095892380937901B4
:0E13B0006DCF0E949900F89469CFF894FFCF9A
:1013BE000901AB001E020100AC0001D200C404738F
:0A13CE0005C40473054F07C40700AF
:00000001FF
